:100000000C942A000C9447000C9447000C94470071
:100010000C9447000C94E8060C9447000C9447009D
:100020000C9447000C9447000C9447000C94E8078C
:100030000C9447000C9447000C9447000C94470024
:100040000C9447000C9447000C9447000C94470014
:100050000C94470011241FBECFE5D8E0DEBFCDBF12
:1000600012E0A0E6B0E0E2E9F4E302C005900D92F0
:10007000A430B107D9F712E0A4E0B2E001C01D92AC
:10008000A733B107E1F70E94BD150C94471A0C94F1
:100090000000EF92FF920F931F937B018C0120E0F1
:1000A00030E040E05FE40E94490388238CF0C801FF
:1000B000B70120E030E040E05FE40E94C1010E940F
:1000C000A9039B01AC01205030404040504806C07D
:1000D000C801B7010E94A9039B01AC01B901CA0183
:1000E0001F910F91FF90EF900895A0E0B0E0EBE733
:1000F000F0E00C94101ADC012B01FA019C91923073
:1001000008F439C1EB018881823008F433C194309E
:1001100069F4843009F02FC111969C91119789815F
:10012000981709F428C1A7EDB0E025C1843009F47F
:1001300021C18230A9F4923009F01DC19A01AD01AC
:1001400088E0EA010990AE01E90109929E0181501F
:10015000C1F7E201898111969C918923818308C1AD
:10016000923009F407C112962D903C901397EB0141
:100170008A819B811496AD90BD90CD90DC901797AD
:10018000EC80FD800E811F819101281B390BB90184
:1001900037FF04C066277727621B730B6032710537
:1001A0000CF061C0121613066CF537014801062EDB
:1001B00004C096948794779467940A94D2F721E0C8
:1001C00030E040E050E004C0220F331F441F551FB1
:1001D0006A95D2F721503040404050402E213F21B7
:1001E00040235123211531054105510521F021E01E
:1001F00030E040E050E079018A01E628F72808293C
:1002000019293CC0232BD1F1260E371E350146019A
:10021000062E04C096948794779467940A94D2F734
:1002200021E030E040E050E004C0220F331F441FC3
:10023000551F6A95D2F721503040404050402A2146
:100240003B214C215D21211531054105510521F04E
:1002500021E030E040E050E059016A01A628B728CB
:10026000C828D9280BC0821593052CF01C01AA249C
:10027000BB24650103C0EE24FF24870111969C91E5
:10028000D20111968C91981709F445C0992339F041
:10029000A80197012A193B094C095D0906C0A6016E
:1002A00095012E193F09400B510B57FD08C01182D3
:1002B0003382228224833583468357831DC081E0A5
:1002C00081833382228288279927DC01821B930B4A
:1002D000A40BB50B84839583A683B7830DC0220F2F
:1002E000331F441F551F24833583468357838281E0
:1002F000938101979383828324813581468157813D
:10030000DA01C9010197A109B1098F5F9F4FAF4F72
:10031000BF4328F30BC0918333822282EA0CFB1C7B
:100320000C1D1D1DE482F5820683178383E0808304
:10033000248135814681578157FF1AC0C901AA27F8
:1003400097FDA095BA2F81709070A070B0705695EF
:10035000479537952795822B932BA42BB52B848318
:100360009583A683B7838281938101969383828349
:10037000DF0101C0D201CD01CDB7DEB7E2E10C94BF
:100380002C1AA0E2B0E0E7ECF1E00C941C1A6983AF
:100390007A838B839C832D833E834F835887E9E048
:1003A000EE2EF12CEC0EFD1ECE010196B7010E943F
:1003B0009A058E010F5E1F4FCE010596B8010E946F
:1003C0009A058A8991E089278A8BC701B801AE0115
:1003D000475E5F4F0E9475000E94C504A096E6E04C
:1003E0000C94381AA0E2B0E0E8EFF1E00C941C1A8B
:1003F00069837A838B839C832D833E834F835887C5
:10040000F9E0EF2EF12CEC0EFD1ECE010196B701A6
:100410000E949A058E010F5E1F4FCE010596B8010E
:100420000E949A05C701B801AE01475E5F4F0E9466
:1004300075000E94C504A096E6E00C94381AA0E26C
:10044000B0E0E5E2F2E00C94101A69837A838B83C2
:100450009C832D833E834F835887CE010196BE0136
:10046000675F7F4F0E949A05CE010596BE016F5EC1
:100470007F4F0E949A059985923088F08989823051
:10048000C8F0943019F4823051F404C0843029F457
:10049000923081F487ED90E0C6C0923049F420E0BC
:1004A0009A858A89981321E02A87CE010996BBC0D4
:1004B000823049F420E09A858A89981321E02A8BBA
:1004C000CE014196B0C02D843E844F8458886D88FB
:1004D0007E888F88988CEE24FF248701AA24BB2471
:1004E000650140E050E060E070E0E0E0F0E0C10174
:1004F00081709070892BE9F0E60CF71C081D191D1E
:100500009A01AB012A0D3B1D4C1D5D1D80E090E062
:10051000A0E0B0E0E614F7040805190520F481E036
:1005200090E0A0E0B0E0BA01A901480F591F6A1F8E
:100530007B1FAA0CBB1CCC1CDD1C97FE08C081E0F5
:1005400090E0A0E0B0E0A82AB92ACA2ADB2A3196B6
:10055000E032F10549F0660C771C881C991C569412
:10056000479437942794C3CFFA85EA892B893C892D
:100570008B859C85280F391F2E5F3F4F17C0CA01FE
:1005800081709070892B61F016950795F794E79428
:1005900080E090E0A0E0B0E8E82AF92A0A2B1B2BC3
:1005A00076956795579547952F5F3F4F77FDE7CF36
:1005B0000CC0440F551F661F771F17FD4160EE0CDE
:1005C000FF1C001F111F21503040403090E05907A0
:1005D00090E0690790E4790760F32B8F3C8FDB0193
:1005E000CA018F779070A070B07080349105A1051A
:1005F000B10561F447FD0AC0E114F10401051105DC
:1006000029F0405C5F4F6F4F7F4F40781A8EFE1786
:1006100011F081E08A8F4D8F5E8F6F8F78A383E01A
:10062000898FCE0149960E94C504A096E2E10C9400
:100630002C1AA8E1B0E0EFE1F3E00C941C1A6983F6
:100640007A838B839C832D833E834F83588789E0F5
:10065000E82EF12CEC0EFD1ECE010196B7010E9492
:100660009A058E010F5E1F4FCE010596B8010E94BC
:100670009A058985823040F08989823028F0C70147
:10068000B8010E94120601C08FEF6896E6E00C9454
:10069000381AA8E1B0E0EFE4F3E00C941C1A698387
:1006A0007A838B839C832D833E834F83588789E095
:1006B000E82EF12CEC0EFD1ECE010196B7010E9432
:1006C0009A058E010F5E1F4FCE010596B8010E945C
:1006D0009A058985823040F08989823028F0C701E7
:1006E000B8010E94120601C08FEF6896E6E00C94F4
:1006F000381AA8E1B0E0EFE7F3E00C941C1A698324
:100700007A838B839C832D833E834F83588789E034
:10071000E82EF12CEC0EFD1ECE010196B7010E94D1
:100720009A058E010F5E1F4FCE010596B8010E94FB
:100730009A058985823040F08989823028F0C70186
:10074000B8010E94120601C081E06896E6E00C94B0
:10075000381AACE0B0E0EFEAF3E00C94201A6983B9
:100760007A838B839C83CE010196BE016B5F7F4FA2
:100770000E949A058D81823061F1823050F184307F
:1007800021F48E81882351F12EC02F81388537FDC9
:1007900020C06E812F3131051CF06623F9F023C093
:1007A0008EE190E0821B930B29853A854B855C8511
:1007B00004C056954795379527958A95D2F76623B5
:1007C000B1F050954095309521953F4F4F4F5F4F79
:1007D0000EC020E030E040E050E009C02FEF3FEFD6
:1007E0004FEF5FE704C020E030E040E050E8B9019F
:1007F000CA012C96E2E00C943C1AA8E0B0E0E3E0D9
:10080000F4E00C94181A7B018C01611571058105C7
:10081000910519F482E0898360C083E089838EE1C9
:10082000C82ED12CDC82CB82ED82FE820F8318870A
:10083000C801B7010E947604FC013197F7FF3BC065
:10084000222733272E1B3F0B57016801022E04C0BD
:10085000D694C794B794A7940A94D2F740E050E096
:1008600060E070E081E090E0A0E0B0E004C0880FBC
:10087000991FAA1FBB1F2A95D2F70197A109B10999
:100880008E219F21A023B1230097A105B10521F05E
:1008900041E050E060E070E04A295B296C297D2945
:1008A0004D835E836F8378878EE190E08E1B9F0B74
:1008B0009C838B8312C0309781F00E2E04C0EE0C07
:1008C000FF1C001F111F0A94D2F7ED82FE820F83D6
:1008D0001887CE1ADF0ADC82CB821A82CE010196FB
:1008E0000E94C5042896EAE00C94341AEF92FF9215
:1008F0000F931F937B018C0180E0E81680E0F806DF
:1009000081E0080780E0180788F48FEFE816F1040B
:100910000105110531F028F088E090E0A0E0B0E09A
:1009200017C080E090E0A0E0B0E012C080E0E816E0
:1009300080E0F80680E0080781E0180728F088E1E9
:1009400090E0A0E0B0E004C080E190E0A0E0B0E082
:1009500020E230E040E050E0281B390B4A0B5B0BF3
:1009600004C016950795F794E7948A95D2F7F70196
:10097000E152FF4F8081281B310941095109C9010A
:100980001F910F91FF90EF900895DF92EF92FF92E9
:100990000F931F93FC01E480F58006811781D180BD
:1009A0008081823048F480E090E0A0E1B0E0E82A65
:1009B000F92A0A2B1B2BA5C0843009F49FC0823072
:1009C00021F4EE24FF24870105C0E114F1040105A0
:1009D000110519F4E0E0F0E096C0628173819FEFA9
:1009E000623879070CF05BC022E83FEF261B370B1B
:1009F0002A3131052CF020E030E040E050E02AC000
:100A0000B801A701022E04C07695679557954795C2
:100A10000A94D2F781E090E0A0E0B0E004C0880F33
:100A2000991FAA1FBB1F2A95D2F70197A109B109E7
:100A30008E219F21A023B1230097A105B10521F0AC
:100A400081E090E0A0E0B0E09A01AB01282B392BC7
:100A50004A2B5B2BDA01C9018F779070A070B070C0
:100A600080349105A105B10539F427FF09C0205C48
:100A70003F4F4F4F5F4F04C0215C3F4F4F4F5F4F81
:100A8000E0E0F0E02030A0E03A07A0E04A07A0E470
:100A90005A0710F0E1E0F0E079018A0127C06038E0
:100AA000710564F5FB01E158FF4FD801C7018F774D
:100AB0009070A070B07080349105A105B10539F433
:100AC000E7FE0DC080E490E0A0E0B0E004C08FE35A
:100AD00090E0A0E0B0E0E80EF91E0A1F1B1F17FF10
:100AE00005C016950795F794E794319687E016951B
:100AF0000795F794E7948A95D1F705C0EE24FF2473
:100B00008701EFEFF0E06E2F679566276795902FCE
:100B10009F77D794DD24D7948E2F8695492F462B27
:100B2000582F5D29B701CA011F910F91FF90EF90D7
:100B3000DF900895FC01DB01408151812281622F09
:100B40006F7770E0221F2227221F9381892F880F41
:100B5000822B282F30E0991F9927991F11969C937B
:100B6000119721153105A9F541155105610571054B
:100B700011F482E037C082E89FEF13969C938E9326
:100B800012979A01AB0167E0220F331F441F551FD4
:100B90006A95D1F783E08C930DC0220F331F441F59
:100BA000551F12968D919C911397019713969C93C4
:100BB0008E931297203080E0380780E0480780E469
:100BC000580758F314962D933D934D935C931797C4
:100BD00008952F3F310579F44115510561057105DF
:100BE00019F484E08C93089564FF03C081E08C9332
:100BF00012C01C9210C02F57304013963C932E9376
:100C0000129783E08C9387E0440F551F661F771F70
:100C10008A95D1F7706414964D935D936D937C9390
:100C2000179708951F93DC01FB019C91923008F403
:100C300047C08081823008F443C0943051F411964B
:100C40001C91843099F58181682F70E0611B7109D6
:100C50003FC0843021F0923031F48230B9F181818B
:100C6000882389F12DC011961C9111978230F1F0E3
:100C700081811817D9F412962D913C911397828196
:100C800093818217930794F028173907BCF01496C4
:100C90008D919D910D90BC91A02D2481358146812F
:100CA0005781281739074A075B0718F4112341F0C9
:100CB0000AC082179307A407B50740F4112319F05F
:100CC00061E070E005C06FEF7FEF02C060E070E0B0
:100CD000CB011F910895DF93CF930F92CDB7DEB76D
:100CE0001982AFE5B0E0EFE5F0E080818F778C937B
:100CF000E5E4F0E01082E4E4F0E01082A5E4B0E086
:100D0000E5E4F0E0808180648C93A5E4B0E0E5E464
:100D1000F0E0808188608C93A5E4B0E0E5E4F0E049
:100D200080818F7E8C93A5E4B0E0E5E4F0E08081E3
:100D300080628C93A5E4B0E0E5E4F0E080818E7FF2
:100D40008C93A5E4B0E0E5E4F0E080818D7F8C93A6
:100D5000A5E4B0E0E5E4F0E0808184608C9381E07C
:100D6000898389810F90CF91DF910895DF93CF938D
:100D70000F92CDB7DEB7198281E0898389810F9008
:100D8000CF91DF910895DF93CF930F92CDB7DEB768
:100D9000198281E0898389810F90CF91DF91089535
:100DA000DF93CF9300D00F92CDB7DEB79B838A83BA
:100DB00019828A819B81909305028093040281E0CD
:100DC000898389810F900F900F90CF91DF910895C3
:100DD0001F920F920FB60F9211242F933F934F93B0
:100DE0005F936F937F938F939F93AF93BF93EF9393
:100DF000FF93DF93CF93CDB7DEB78091060290913A
:100E00000702A0910802B0910902883E21E09207F2
:100E100020E0A20720E0B20791F4E0910402F091F3
:100E200005020995E4E4F0E088EB80831092060265
:100E300010920702109208021092090213C08091CA
:100E4000060290910702A0910802B0910902019652
:100E5000A11DB11D8093060290930702A093080282
:100E6000B0930902CF91DF91FF91EF91BF91AF91C4
:100E70009F918F917F916F915F914F913F912F91B2
:100E80000F900FBE0F901F901895DF93CF930F9286
:100E9000CDB7DEB789838981482F50E0CA019C0114
:100EA000220F331FC9019695982F8827979587950C
:100EB000821B930B840F951F24E630E0B9010E943A
:100EC000C019CB018983E3E4F0E0898180830F902E
:100ED000CF91DF910895DF93CF930F92CDB7DEB717
:100EE0001982AFE5B0E0EFE5F0E080818F778C9379
:100EF000E3E5F0E01082E2E5F0E01082A3E5B0E087
:100F0000E3E5F0E0808180648C93A3E5B0E0E3E565
:100F1000F0E0808188608C93A3E5B0E0E3E5F0E049
:100F200080818F7E8C93A3E5B0E0E3E5F0E08081E3
:100F300080628C93A3E5B0E0E3E5F0E080818E7FF2
:100F40008C93A3E5B0E0E3E5F0E080818D7F8C93A6
:100F5000A3E5B0E0E3E5F0E0808184608C9381E07C
:100F6000898389810F90CF91DF910895DF93CF938B
:100F70000F92CDB7DEB7198281E0898389810F9006
:100F8000CF91DF910895DF93CF930F92CDB7DEB766
:100F9000198281E0898389810F90CF91DF91089533
:100FA000DF93CF9300D00F92CDB7DEB79B838A83B8
:100FB00019828A819B8190930B0280930A0281E0BF
:100FC000898389810F900F900F90CF91DF910895C1
:100FD0001F920F920FB60F9211242F933F934F93AE
:100FE0005F936F937F938F939F93AF93BF93EF9391
:100FF000FF93DF93CF93CDB7DEB780910C02909132
:101000000D02A0910E02B0910F02883E21E09207DE
:1010100020E0A20720E0B20791F4E0910A02F091EB
:101020000B020995E2E5F0E088EB808310920C0258
:1010300010920D0210920E0210920F0213C08091B6
:101040000C0290910D02A0910E02B0910F02019638
:10105000A11DB11D80930C0290930D02A0930E026E
:10106000B0930F02CF91DF91FF91EF91BF91AF91BC
:101070009F918F917F916F915F914F913F912F91B0
:101080000F900FBE0F901F901895DF93CF930F9284
:10109000CDB7DEB789838981482F50E0CA019C0112
:1010A000220F331FC9019695982F8827979587950A
:1010B000821B930B840F951F24E630E0B9010E9438
:1010C000C019CB018983ECE5F0E0898180830F9022
:1010D000CF91DF910895DF93CF9300D0CDB7DEB7E6
:1010E0008A83198288E161E00E94DF108A810E9470
:1010F000970881E0898389810F900F90CF91DF91CC
:101100000895DF93CF9300D0CDB7DEB78A831982DD
:1011100088E160E00E94DF108A810E94970881E0E8
:10112000898389810F900F90CF91DF910895DF938C
:10113000CF93CDB7DEB76D970FB6F894DEBF0FBE75
:10114000CDBF8D8F89E160E00E94DF108D8D982FDB
:10115000917080E1692F0E94DF108D8D8695982F08
:10116000917081E1692F0E94DF108D8D86958695A3
:10117000982F917082E1692F0E94DF108D8D8695E6
:1011800086958695982F917083E1692F0E94DF10D4
:101190008D8D82958F70982F917084E1692F0E94B8
:1011A000DF108D8D829586958770982F917085E1DF
:1011B000692F0E94DF108D8D8295869586958370AC
:1011C000982F917086E1692F0E94DF108D8D982FE6
:1011D000991F9927991F87E1692F0E94DF108AE1E3
:1011E00061E00E94DF1080E090E0A0E8BFE3898F1B
:1011F0009A8FAB8FBC8F698D7A8D8B8D9C8D20E003
:1012000030E04AEF54E40E941F02DC01CB018D8BD9
:101210009E8BAF8BB88F6D897E898F89988D20E0EA
:1012200030E040E85FE30E94790388232CF481E0FA
:1012300090E09C8B8B8B3FC06D897E898F89988DC8
:1012400020E03FEF4FE757E40E94190318164CF5D2
:10125000698D7A8D8B8D9C8D20E030E040E251E4E9
:101260000E941F02DC01CB01BC01CD010E9449009C
:10127000DC01CB019C8B8B8B0FC088EC90E09A8BB0
:10128000898B89899A890197F1F79A8B898B8B8948
:101290009C8901979C8B8B8B8B899C89009769F724
:1012A00014C06D897E898F89988D0E944900DC0168
:1012B000CB019C8B8B8B8B899C89988B8F878F859F
:1012C00098890197F1F7988B8F878AE160E00E94F7
:1012D000DF1080E090E0A0E8BFE38B879C87AD87BC
:1012E000BE876B857C858D859E8520E030E04AEF4A
:1012F00054E40E941F02DC01CB018F839887A987E9
:10130000BA876F81788589859A8520E030E040E84A
:101310005FE30E94790388232CF481E090E09E83B0
:101320008D833FC06F81788589859A8520E03FEF66
:101330004FE757E40E94190318164CF56B857C851E
:101340008D859E8520E030E040E251E40E941F023E
:10135000DC01CB01BC01CD010E944900DC01CB01C5
:101360009E838D830FC088EC90E09C838B838B8160
:101370009C810197F1F79C838B838D819E810197DE
:101380009E838D838D819E81009769F714C06F8144
:10139000788589859A850E944900DC01CB019E836E
:1013A0008D838D819E819A83898389819A8101971A
:1013B000F1F79A8389836D960FB6F894DEBF0FBE5E
:1013C000CDBFCF91DF910895DF93CF93CDB7DEB737
:1013D000E9970FB6F894DEBF0FBECDBF19AE80E11E
:1013E00061E00E94CF0F81E161E00E94CF0F82E1B6
:1013F00061E00E94CF0F83E161E00E94CF0F84E1A2
:1014000061E00E94CF0F85E161E00E94CF0F86E18D
:1014100061E00E94CF0F87E161E00E94CF0F88E179
:1014200061E00E94CF0F89E161E00E94CF0F8AE165
:1014300061E00E94CF0F80E090E0A8E4B2E48DABC1
:101440009EABAFABB8AF6DA97EA98FA998AD20E0D8
:1014500030E04AEF54E40E941F02DC01CB0189AB6B
:101460009AABABABBCAB69A97AA98BA99CA920E0CC
:1014700030E040E85FE30E94790388232CF481E0A8
:1014800090E098AB8FA73FC069A97AA98BA99CA9C6
:1014900020E03FEF4FE757E40E94190318164CF580
:1014A0006DA97EA98FA998AD20E030E040E251E41B
:1014B0000E941F02DC01CB01BC01CD010E9449004A
:1014C000DC01CB0198AB8FA70FC088EC90E09EA702
:1014D0008DA78DA59EA50197F1F79EA78DA78FA536
:1014E00098A9019798AB8FA78FA598A9009769F73E
:1014F00014C069A97AA98BA99CA90E944900DC01A2
:10150000CB0198AB8FA78FA598A99CA78BA78BA57C
:101510009CA50197F1F79CA78BA788E30E948108FF
:1015200080E090E0A0E8BFE38FA398A7A9A7BAA79F
:101530006FA178A589A59AA520E030E04AEF54E490
:101540000E941F02DC01CB018BA39CA3ADA3BEA311
:101550006BA17CA18DA19EA120E030E040E85FE37B
:101560000E94790388232CF481E090E09AA389A358
:101570003FC06BA17CA18DA19EA120E03FEF4FE772
:1015800057E40E94190318164CF56FA178A589A598
:101590009AA520E030E040E251E40E941F02DC0105
:1015A000CB01BC01CD010E944900DC01CB019AA313
:1015B00089A30FC088EC90E098A38F8F8F8D98A19E
:1015C0000197F1F798A38F8F89A19AA101979AA308
:1015D00089A389A19AA1009769F714C06BA17CA186
:1015E0008DA19EA10E944900DC01CB019AA389A391
:1015F00089A19AA19E8F8D8F8D8D9E8D0197F1F778
:101600009E8F8D8F8CE00E94810880E090E0A0E8A2
:10161000BFE3898F9A8FAB8FBC8F698D7A8D8B8D4D
:101620009C8D20E030E04AEF54E40E941F02DC0170
:10163000CB018D8B9E8BAF8BB88F6D897E898F8907
:10164000988D20E030E040E85FE30E947903882332
:101650002CF481E090E09C8B8B8B3FC06D897E8960
:101660008F89988D20E03FEF4FE757E40E941903E0
:1016700018164CF5698D7A8D8B8D9C8D20E030E0AD
:1016800040E251E40E941F02DC01CB01BC01CD010C
:101690000E944900DC01CB019C8B8B8B0FC088EC36
:1016A00090E09A8B898B89899A890197F1F79A8BB7
:1016B000898B8B899C8901979C8B8B8B8B899C89CF
:1016C000009769F714C06D897E898F89988D0E9473
:1016D0004900DC01CB019C8B8B8B8B899C89988B7F
:1016E0008F878F8598890197F1F7988B8F8781E095
:1016F0000E94810880E090E0A0E0B0E48B879C87A6
:10170000AD87BE876B857C858D859E8520E030E02A
:101710004AEF54E40E941F02DC01CB018F839887BB
:10172000A987BA876F81788589859A8520E030E01E
:1017300040E85FE30E94790388232CF481E090E085
:101740009E838D833FC06F81788589859A8520E04F
:101750003FEF4FE757E40E94190318164CF56B85CD
:101760007C858D859E8520E030E040E251E40E943A
:101770001F02DC01CB01BC01CD010E944900DC014C
:10178000CB019E838D830FC088EC90E09C838B837C
:101790008B819C810197F1F79C838B838D819E8146
:1017A00001979E838D838D819E81009769F714C078
:1017B0006F81788589859A850E944900DC01CB017B
:1017C0009E838D838D819E819A83898389819A816D
:1017D0000197F1F79A83898381E089AF89ADE99612
:1017E0000FB6F894DEBF0FBECDBFCF91DF91089545
:1017F000DF93CF9300D00F92CDB7DEB78A836B8390
:1018000019828B818032B8F48A81882339F48B81E4
:1018100080580E94810881E089830FC08A818130CD
:1018200039F48B8180540E94810881E0898305C04E
:1018300083E0898302C083E0898389810F900F90C0
:101840000F90CF91DF910895DF93CF9300D000D018
:10185000CDB7DEB79C838B831A8219820EC0898133
:10186000282F30E08B819C81FC01E20FF31F8081E7
:101870000E946B0889818F5F89838981282F30E0DE
:101880008B819C81FC01E20FF31F8081882339F753
:1018900081E08A838A810F900F900F900F90CF91F3
:1018A000DF9108950F931F93DF93CF93CDB7DEB7EA
:1018B00061970FB6F894DEBF0FBECDBF6E877F87EE
:1018C000888B998B1D861C868E859F85A889B989F2
:1018D000BB2314F01C8611C08E859F85A889B98909
:1018E000B095A095909581959F4FAF4FBF4F8E8734
:1018F0009F87A88BB98B81E08C878E859F85A8896F
:10190000B98988879987AA87BB8781E08F8303C0BD
:101910008F818F5F8F8388859985AA85BB852AE013
:1019200030E040E050E0BC01CD010E94D319DA0163
:10193000C90188879987AA87BB8788859985AA85E1
:10194000BB850097A105B10519F78E859F85A889EC
:10195000B98988879987AA87BB871B821C821D82C9
:101960001E82198243C088859985AA85BB852AE095
:1019700030E040E050E0BC01CD010E94D319DC0111
:10198000CB019C01AD018B819C81AD81BE81820F19
:10199000931FA41FB51F8B839C83AD83BE838B8154
:1019A0009C81AD81BE812AE030E040E050E0BC0186
:1019B000CD010E948D19DC01CB018B839C83AD830B
:1019C000BE8388859985AA85BB852AE030E040E002
:1019D00050E0BC01CD010E94D319DA01C90188870A
:1019E0009987AA87BB8789818F5F89838885998535
:1019F000AA85BB850097A105B10509F0B4CF8B81FD
:101A00009C81AD81BE812AE030E040E050E0BC0125
:101A1000CD010E94F519DA01C9018B839C83AD8346
:101A2000BE831A822BC08A81082F10E08B819C8193
:101A3000AD81BE812AE030E040E050E0BC01CD0144
:101A40000E94F519DC01CB01805DF801E35EFD4FDA
:101A500080838B819C81AD81BE812AE030E040E0B3
:101A600050E0BC01CD010E94F519DA01C9018B8358
:101A70009C83AD83BE838A818F5F8A839A818F81A5
:101A8000981788F28C85882341F08DE20E946B08BC
:101A90008DE192E00E94240C04C08DE192E00E944E
:101AA000240C81E08D878D8561960FB6F894DEBF9A
:101AB0000FBECDBFCF91DF911F910F9108950F936E
:101AC0001F93DF93CF93CDB7DEB76B970FB6F89424
:101AD000DEBF0FBECDBF688F798F8A8F9B8F1F8A25
:101AE0001E8A688D798D8A8D9B8D20E030E040E0E4
:101AF00050E00E944903882314F01E8A0BC0888D91
:101B0000998DAA8DBB8DB058888F998FAA8FBB8F66
:101B100081E08E8B688D798D8A8D9B8D0E94490026
:101B2000DC01CB018A8B9B8BAC8BBD8B81E0898BDD
:101B300003C089898F5F898B8A899B89AC89BD891C
:101B40002AE030E040E050E0BC01CD010E94D31912
:101B5000DA01C9018A8B9B8BAC8BBD8B8A899B89EF
:101B6000AC89BD890097A105B10519F7688D798DFC
:101B70008A8D9B8D0E944900DC01CB018A8B9B8B57
:101B8000AC8BBD8B1D861E861F86188A1A8243C0A9
:101B90008A899B89AC89BD892AE030E040E050E029
:101BA000BC01CD010E94D319DC01CB019C01AD0128
:101BB0008D859E85AF85B889820F931FA41FB51FA1
:101BC0008D879E87AF87B88B8D859E85AF85B889B9
:101BD0002AE030E040E050E0BC01CD010E948D19C8
:101BE000DC01CB018D879E87AF87B88B8A899B8963
:101BF000AC89BD892AE030E040E050E0BC01CD0175
:101C00000E94D319DA01C9018A8B9B8BAC8BBD8BE7
:101C10008A818F5F8A838A899B89AC89BD89009775
:101C2000A105B10509F0B4CF8D859E85AF85B88932
:101C30002AE030E040E050E0BC01CD010E94F519FF
:101C4000DA01C9018D879E87AF87B88B1C862BC0B0
:101C50008C85082F10E08D859E85AF85B8892AE098
:101C600030E040E050E0BC01CD010E94F519DC01FC
:101C7000CB01805DF801E35DFD4F80838D859E85FE
:101C8000AF85B8892AE030E040E050E0BC01CD01EA
:101C90000E94F519DA01C9018D879E87AF87B88B3D
:101CA0008C858F5F8C879C858989981788F28C85B5
:101CB000882F90E0FC01E35DFD4F8EE28083688D0C
:101CC000798D8A8D9B8D0E944900DC01CB018A8B26
:101CD0009B8BAC8BBD8B6A897B898C899D890E948B
:101CE000FD039B01AC01688D798D8A8D9B8D0E94CF
:101CF000C101DC01CB0188879987AA87BB876885EA
:101D000079858A859B8520E030E44CE156E40E9489
:101D10001F02DC01CB01BC01CD010E944900DC01A6
:101D2000CB018C839D83AE83BF838C819D81AE81EB
:101D3000BF818A8B9B8BAC8BBD8B81E08B8303C077
:101D40008B818F5F8B838A899B89AC89BD892AE0CF
:101D500030E040E050E0BC01CD010E94D319DA012F
:101D6000C9018A8B9B8BAC8BBD8B8A899B89AC8983
:101D7000BD890097A105B10519F78C819D81AE81C0
:101D8000BF818A8B9B8BAC8BBD8B1D861E861F866D
:101D9000188A198243C08A899B89AC89BD892AE047
:101DA00030E040E050E0BC01CD010E94D319DC01DD
:101DB000CB019C01AD018D859E85AF85B889820FD1
:101DC000931FA41FB51F8D879E87AF87B88B8D8506
:101DD0009E85AF85B8892AE030E040E050E0BC0144
:101DE000CD010E948D19DC01CB018D879E87AF87C5
:101DF000B88B8A899B89AC89BD892AE030E040E0B4
:101E000050E0BC01CD010E94D319DA01C9018A8BCF
:101E10009B8BAC8BBD8B89818F5F89838A899B89E2
:101E2000AC89BD890097A105B10509F0B4CF8D85B6
:101E30009E85AF85B8892AE030E040E050E0BC01E3
:101E4000CD010E94F519DA01C9018D879E87AF8700
:101E5000B88B89898F5F8C872BC08C85082F10E009
:101E60008D859E85AF85B8892AE030E040E050E05E
:101E7000BC01CD010E94F519DC01CB01805DF801A8
:101E8000E35DFD4F80838D859E85AF85B8892AE00F
:101E900030E040E050E0BC01CD010E94F519DA01CC
:101EA000C9018D879E87AF87B88B8C858F5F8C87A4
:101EB0008C85282F30E08989882F90E0049682173E
:101EC00093075CF68E89882341F08DE20E946B08AF
:101ED0008DE292E00E94240C04C08DE292E00E9408
:101EE000240C81E08F8B8F896B960FB6F894DEBF40
:101EF0000FBECDBFCF91DF911F910F910895DF935A
:101F0000CF9300D000D00F92CDB7DEB79C838B83E8
:101F10006D831A828D81883028F58D81882F90E01D
:101F20000896880F991F880F991F880F991F0E9484
:101F3000810819820EC08981282F30E08B819C8115
:101F4000FC01E20FF31F80810E946B0889818F5F83
:101F500089838981883078F380E80E94810881E054
:101F60008A8302C083E08A838A810F900F900F904A
:101F70000F900F90CF91DF910895DF93CF9300D012
:101F8000CDB7DEB78A8319828A810E946B0881E00F
:101F9000898389810F900F90CF91DF910895DF930E
:101FA000CF9300D00F92CDB7DEB78A836B831982AF
:101FB0008B81813009F079C08A818830B0F4AAE33E
:101FC000B0E0EAE3F0E08081482F8A81282F30E0FA
:101FD00081E090E0022E02C0880F991F0A94E2F778
:101FE000842B8C9381E08983E3C08A818830E0F080
:101FF0008A818031C8F4A7E3B0E0E7E3F0E08081B4
:10200000482F8A81882F90E09C012850304081E041
:1020100090E0022E02C0880F991F0A94E2F7842BE9
:102020008C9381E08983C4C08A818031E0F08A8109
:102030008831C8F4A4E3B0E0E4E3F0E08081482F05
:102040008A81882F90E09C012051304081E090E00F
:10205000022E02C0880F991F0A94E2F7842B8C93FA
:1020600081E08983A5C08A818831E0F08A8180324D
:10207000C8F4A1E3B0E0E1E3F0E08081482F8A8179
:10208000882F90E09C012851304081E090E0022EA2
:1020900002C0880F991F0A94E2F7842B8C9381E089
:1020A000898386C083E0898383C08B81882309F07C
:1020B0007DC08A818830B8F4AAE3B0E0EAE3F0E0BA
:1020C0008081482F8A81282F30E081E090E0022E25
:1020D00002C0880F991F0A94E2F7809584238C939D
:1020E00081E0898365C08A818830E8F08A81803107
:1020F000D0F4A7E3B0E0E7E3F0E08081482F8A81E5
:10210000882F90E09C012850304081E090E0022E22
:1021100002C0880F991F0A94E2F7809584238C935C
:1021200081E0898345C08A818031E8F08A818831E5
:10213000D0F4A4E3B0E0E4E3F0E08081482F8A81AA
:10214000882F90E09C012051304081E090E0022EE9
:1021500002C0880F991F0A94E2F7809584238C931C
:1021600081E0898325C08A818831E8F08A818032C4
:10217000D0F4A1E3B0E0E1E3F0E08081482F8A8170
:10218000882F90E09C012851304081E090E0022EA1
:1021900002C0880F991F0A94E2F7809584238C93DC
:1021A00081E0898305C083E0898302C083E089835D
:1021B00089810F900F900F90CF91DF910895DF9359
:1021C000CF9300D00F92CDB7DEB78A836B8319828D
:1021D0008B81813009F079C08A818830B0F4ABE31B
:1021E000B0E0EBE3F0E08081482F8A81282F30E0D7
:1021F00081E090E0022E02C0880F991F0A94E2F756
:10220000842B8C9381E08983E3C08A818830E0F05D
:102210008A818031C8F4A8E3B0E0E8E3F0E080818F
:10222000482F8A81882F90E09C012850304081E01F
:1022300090E0022E02C0880F991F0A94E2F7842BC7
:102240008C9381E08983C4C08A818031E0F08A81E7
:102250008831C8F4A5E3B0E0E5E3F0E08081482FE1
:102260008A81882F90E09C012051304081E090E0ED
:10227000022E02C0880F991F0A94E2F7842B8C93D8
:1022800081E08983A5C08A818831E0F08A8180322B
:10229000C8F4A2E3B0E0E2E3F0E08081482F8A8155
:1022A000882F90E09C012851304081E090E0022E80
:1022B00002C0880F991F0A94E2F7842B8C9381E067
:1022C000898386C083E0898383C08B81882309F05A
:1022D0007DC08A818830B8F4ABE3B0E0EBE3F0E096
:1022E0008081482F8A81282F30E081E090E0022E03
:1022F00002C0880F991F0A94E2F7809584238C937B
:1023000081E0898365C08A818830E8F08A818031E4
:10231000D0F4A8E3B0E0E8E3F0E08081482F8A81C0
:10232000882F90E09C012850304081E090E0022E00
:1023300002C0880F991F0A94E2F7809584238C933A
:1023400081E0898345C08A818031E8F08A818831C3
:10235000D0F4A5E3B0E0E5E3F0E08081482F8A8186
:10236000882F90E09C012051304081E090E0022EC7
:1023700002C0880F991F0A94E2F7809584238C93FA
:1023800081E0898325C08A818831E8F08A818032A2
:10239000D0F4A2E3B0E0E2E3F0E08081482F8A814C
:1023A000882F90E09C012851304081E090E0022E7F
:1023B00002C0880F991F0A94E2F7809584238C93BA
:1023C00081E0898305C083E0898302C083E089833B
:1023D00089810F900F900F90CF91DF910895DF9337
:1023E000CF9300D000D0CDB7DEB78A837C836B83D8
:1023F00019828A81883000F5E9E3F0E08081282F96
:1024000030E08A81882F90E0A90102C05595479558
:102410008A95E2F7CA01AA2797FDA095BA2F817085
:102420009070A070B070EB81FC8180839183A28357
:10243000B38381E0898377C08A81883020F18A81E3
:10244000803108F5E6E3F0E08081282F30E08A81D2
:10245000882F90E00897A90102C0559547958A9565
:10246000E2F7CA01AA2797FDA095BA2F8170907054
:10247000A070B070EB81FC8180839183A283B383D1
:1024800081E0898350C08A81803120F18A8188313E
:1024900008F5E3E3F0E08081282F30E08A81882F7F
:1024A00090E04097A90102C0559547958A95E2F7BB
:1024B000CA01AA2797FDA095BA2F81709070A070CD
:1024C000B070EB81FC8180839183A283B38381E030
:1024D000898329C08A81883120F18A81803208F578
:1024E000E0E3F0E08081282F30E08A81882F90E0BF
:1024F0004897A90102C0559547958A95E2F7CA0108
:10250000AA2797FDA095BA2F81709070A070B07027
:10251000EB81FC8180839183A283B38381E08983F3
:1025200002C083E0898389810F900F900F900F90F4
:10253000CF91DF910895DF93CF9300D0CDB7DEB771
:102540008A8319828A818830B0F4ABE3B0E0EBE390
:10255000F0E08081482F8A81282F30E081E090E0F0
:10256000022E02C0880F991F0A94E2F784278C93E9
:1025700081E089835FC08A818830E0F08A81803180
:10258000C8F4A8E3B0E0E8E3F0E08081482F8A8156
:10259000882F90E09C012850304081E090E0022E8E
:1025A00002C0880F991F0A94E2F784278C9381E078
:1025B000898340C08A818031E0F08A818831C8F403
:1025C000A5E3B0E0E5E3F0E08081482F8A81882F21
:1025D00090E09C012051304081E090E0022E02C04A
:1025E000880F991F0A94E2F784278C9381E08983EE
:1025F00021C08A818831E0F08A818032C8F4A2E368
:10260000B0E0E2E3F0E08081482F8A81882F90E0FB
:102610009C012851304081E090E0022E02C0880FDA
:10262000991F0A94E2F784278C9381E0898302C082
:1026300083E0898389810F900F90CF91DF91089576
:10264000DF93CF9300D000D00F92CDB7DEB78A834F
:102650006B8319828A81282F30E03D832C838C8103
:102660009D8181309105E1F02C813D812230310541
:102670002CF48C819D81009761F027C02C813D81D5
:1026800022303105A1F08C819D8183309105B1F01C
:102690001CC0EAE3F0E08B81808381E0898317C06E
:1026A000E7E3F0E08B81808381E0898310C0E4E37D
:1026B000F0E08B81808381E0898309C0E1E3F0E071
:1026C0008B81808381E0898302C083E08983898153
:1026D0000F900F900F900F900F90CF91DF91089572
:1026E000DF93CF9300D000D00F92CDB7DEB78A83AF
:1026F0006B8319828A81282F30E03D832C838C8163
:102700009D8181309105E1F02C813D8122303105A0
:102710002CF48C819D81009761F027C02C813D8134
:1027200022303105A1F08C819D8183309105B1F07B
:102730001CC0EBE3F0E08B81808381E0898317C0CC
:10274000E8E3F0E08B81808381E0898310C0E5E3DA
:10275000F0E08B81808381E0898309C0E2E3F0E0CF
:102760008B81808381E0898302C083E089838981B2
:102770000F900F900F900F900F90CF91DF910895D1
:10278000DF93CF930F92CDB7DEB71982A6E2B0E008
:10279000E6E2F0E080818E7F8C93A6E2B0E0E6E294
:1027A000F0E0808182608C93A6E2B0E0E6E2F0E0A7
:1027B000808184608C93A7E2B0E0E7E2F0E0808162
:1027C00080648C93A7E2B0E0E7E2F0E080818F774D
:1027D0008C93A7E2B0E0E7E2F0E080818F7D8C93FC
:1027E00081E0898389810F90CF91DF910895DF93F4
:1027F000CF930F92CDB7DEB71982A6E2B0E0E6E242
:10280000F0E0808180688C9381E0898389810F90DA
:10281000CF91DF910895DF93CF930F92CDB7DEB7BD
:102820001982A6E2B0E0E6E2F0E080818F778C9337
:1028300081E0898389810F90CF91DF910895DF93A3
:10284000CF9300D0CDB7DEB78A831982A7E2B0E07C
:10285000E7E2F0E08081807E8C938A81883058F4B2
:10286000A7E2B0E0E7E2F0E090818A81892B8C93C7
:1028700081E089830BC08A81883030F08A81803280
:1028800018F483E0898302C083E0898389810F90F3
:102890000F90CF91DF910895DF93CF930F92CDB733
:1028A000DEB71982A6E2B0E0E6E2F0E08081806463
:1028B0008C9381E0898389810F90CF91DF91089576
:1028C000DF93CF9300D000D0CDB7DEB78A831982D3
:1028D0008A81282F30E03C832B838B819C81009759
:1028E00079F02B813C812130310599F4A6E2B0E0EA
:1028F000E6E2F0E0808180628C9381E0898309C008
:10290000A6E2B0E0E6E2F0E080818F7D8C9381E08A
:10291000898389810F900F900F900F90CF91DF9155
:102920000895DF93CF930F92CDB7DEB71982A6E259
:10293000B0E0E6E2F0E0808188608C9381E08983FA
:1029400089810F90CF91DF910895DF93CF930F92FC
:10295000CDB7DEB71982A6E2B0E0E6E2F0E0808112
:10296000877F8C9381E0898389810F90CF91DF915C
:102970000895DF93CF930F92CDB7DEB71982E4E2CB
:10298000F0E011821082E6E2F0E0808182958F70A3
:102990008823C9F3A6E2B0E0E6E2F0E0808180613E
:1029A0008C9381E0898389810F90CF91DF91089585
:1029B000DF93CF9300D00F92CDB7DEB79B838A838E
:1029C0001982E4E2F0E080819181EA81FB819183C8
:1029D000808381E0898389810F900F900F90CF9140
:1029E000DF910895DF93CF930F92CDB7DEB71982B1
:1029F00084E060E00E94CF0F85E060E00E94CF0F8E
:102A000086E060E00E94CF0F87E060E00E94CF0F79
:102A10008CE061E00E94CF0F8DE061E00E94CF0F5B
:102A20008EE061E00E94CF0F8FE061E00E94CF0F47
:102A300084E061E00E94DF1085E061E00E94DF1029
:102A400086E061E00E94DF1087E061E00E94DF1015
:102A500081E0898389810F90CF91DF910895DF9381
:102A6000CF93CDB7DEB72A970FB6F894DEBF0FBE6F
:102A7000CDBF9A8789871C8281E090E0A0E0B0E01A
:102A80008D839E83AF83B8871B8267C08B81882F1D
:102A900090E0FC01ED51FE4F808160E00E94DF106C
:102AA0001A824AC0198210C08A81882F90E0FC01E6
:102AB000E152FE4F80819E012B5F3F4FB9010E9482
:102AC000EF1189818F5F89838981833068F38D81DC
:102AD0009E81AF81B8850097A105B10551F50DC064
:102AE0008A81882F90E0FC01E152FE4F80819E0197
:102AF0002B5F3F4FB9010E94EF118D819E81AF8105
:102B0000B8850097A105B10559F38A81482F50E097
:102B10008B81282F30E0CA01880F991F880F991FD9
:102B2000820F931FFC01E951FE4F8081E985FA85F0
:102B300080838A818F5F8A838A81843008F4B2CF50
:102B40008B81882F90E0FC01ED51FE4F808161E088
:102B50000E94DF108B818F5F8B838B81843008F420
:102B600095CF81E08C838C812A960FB6F894DEBFD6
:102B70000FBECDBFCF91DF910895DF93CF93CDB737
:102B8000DEB7E2970FB6F894DEBF0FBECDBF0E944E
:102B9000F2140E94E4090E94C0130E94F71381E01E
:102BA0000E94601480E00E941F140E946B070E9424
:102BB0006B0680E060E00E94CF0F8BE061E00E9436
:102BC000CF0F8BE060E00E94DF108FE161E00E9498
:102BD000CF0F8FE160E00E94DF108EE161E00E9484
:102BE000CF0F1EA61DA680E060E00E94F80B80E6D5
:102BF00090E00E94240C10921C028CE192E00E9452
:102C00002F1580911C02882371F380911C02803360
:102C100020F080911C028A3380F080911C028B325C
:102C200061F080911C028D3241F080911C028F3244
:102C300021F080911C028A32D1F48DA5982F9E5FDD
:102C400081E0692F0E94F80B8EA5882F90E02091DB
:102C50001C02FC01E05FFD4F208380911C020E945A
:102C60006B088EA58F5F8EA78DA58F5F8DA7809136
:102C70001C02853409F08FC280E192E00E94231982
:102C8000882309F404C280E192E00E9404191DA681
:102C90001EA681E00E948108F4C11CA680E060E0CD
:102CA0000E94F80B81E790E00E94240C10921C0215
:102CB0008CE192E00E942F1580911C02803320F05D
:102CC00080911C028A3380F080911C028B3261F06B
:102CD00080911C028D3241F080911C028F3221F0D4
:102CE00080911C028A32C9F48DA5982F9E5F81E0E5
:102CF000692F0E94F80B8EA5882F90E020911C026E
:102D0000FC01EA5EFD4F20838AE20E946B088EA5DB
:102D10008F5F8EA78DA58F5F8DA780911C02853454
:102D200009F08AC186E192E00E945819882309F4CB
:102D30007CC086E192E00E94041981E00E94810833
:102D400018AA1FA61BA680E060E00E94F80B80E88E
:102D500090E00E94240C81E060E00E94F80B8DE876
:102D600090E00E94240C10921C028CE192E00E94E0
:102D70002F151CA60E944C140E94B914CE018F96E8
:102D80000E94D8142FA538A984E690E0AC01249FB6
:102D9000C001259F900D349F900D11242FEF33E03B
:102DA000B9010E94AC19CB0198AB8FA78FA598A948
:102DB0000E94450880911C02282F30E03AAB29ABD5
:102DC00049A95AA940335105B1F089A99AA981337B
:102DD00091055CF429A93AA92B32310589F049A95A
:102DE0005AA94D32510599F01BC089A99AA983347B
:102DF0009105A1F015C080E00E9445071BA610C0F8
:102E00008BA5865F8BA78BA50E94450709C08BA564
:102E10008A508BA78BA50E94450702C081E08CA732
:102E20008CA5882309F026C18ECF86E192E00E940E
:102E300004191DA61EA681E00E94810880E060E0C2
:102E40000E94F80B88E990E00E94240C80E090E05A
:102E5000A8E4B3E48FA398A7A9A7BAA76FA178A500
:102E600089A59AA520E030E04AEF54E40E941F02B1
:102E7000DC01CB018BA39CA3ADA3BEA36BA17CA162
:102E80008DA19EA120E030E040E85FE30E9479033D
:102E900088232CF481E090E09AA389A33FC06BA122
:102EA0007CA18DA19EA120E03FEF4FE757E40E9457
:102EB000190318164CF56FA178A589A59AA520E0ED
:102EC00030E040E251E40E941F02DC01CB01BC0172
:102ED000CD010E944900DC01CB019AA389A30FC058
:102EE00088EC90E098A38F8F8F8D98A10197F1F7D0
:102EF00098A38F8F89A19AA101979AA389A389A1E9
:102F00009AA1009769F714C06BA17CA18DA19EA125
:102F10000E944900DC01CB019AA389A389A19AA14F
:102F20009E8F8D8F8D8D9E8D0197F1F79E8F8D8F4A
:102F300081E00E9481088091030281508093030206
:102F400080910302882309F095C08EE161E00E9420
:102F5000DF1080E090E0AAEFB3E4898F9A8FAB8F07
:102F6000BC8F698D7A8D8B8D9C8D20E030E04AEF8F
:102F700054E40E941F02DC01CB018D8B9E8BAF8B32
:102F8000B88F6D897E898F89988D20E030E040E888
:102F90005FE30E94790388232CF481E090E09C8B0E
:102FA0008B8B3FC06D897E898F89988D20E03FEFA4
:102FB0004FE757E40E94190318164CF5698D7A8D76
:102FC0008B8D9C8D20E030E040E251E40E941F0296
:102FD000DC01CB01BC01CD010E944900DC01CB0129
:102FE0009C8B8B8B0FC088EC90E09A8B898B8989A6
:102FF0009A890197F1F79A8B898B8B899C89019724
:103000009C8B8B8B8B899C89009769F733C06D896A
:103010007E898F89988D0E944900DC01CB019C8BB1
:103020008B8B8B899C89988B8F878F85988901974B
:10303000F1F7988B8F871EC080911C028334D1F4E6
:103040008DA58823B9F08EA5882F90E0FC01EA5E5B
:10305000FD4F10828EA581508EA78DA581508DA722
:103060008DA5982F9E5F81E0692F0E94F80B80E26A
:103070000E946B088CA5882321F081E00E948108C2
:10308000B2CD80910302882309F007CEACCD80E158
:1030900092E00E9404191DA61EA681E00E948108EC
:1030A00080E060E00E94F80B87EA90E00E94240C28
:1030B00080E090E0A8E4B3E48B879C87AD87BE876F
:1030C0006B857C858D859E8520E030E04AEF54E459
:1030D0000E941F02DC01CB018F839887A987BA87E2
:1030E0006F81788589859A8520E030E040E85FE34C
:1030F0000E94790388232CF481E090E09E838D83E5
:103100003FC06F81788589859A8520E03FEF4FE742
:1031100057E40E94190318164CF56B857C858D8544
:103120009E8520E030E040E251E40E941F02DC0175
:10313000CB01BC01CD010E944900DC01CB019E8383
:103140008D830FC088EC90E09C838B838B819C8166
:103150000197F1F79C838B838D819E8101979E83DC
:103160008D838D819E81009769F73DCD6F81788534
:1031700089859A850E944900DC01CB019E838D835D
:103180008D819E819A83898389819A810197F1F744
:103190009A83898328CD80911C02833409F023CD42
:1031A0008DA5882309F41FCD8EA5882F90E0FC0102
:1031B000E05FFD4F10828EA581508EA78DA58150B6
:1031C0008DA78DA5982F9E5F81E0692F0E94F80B37
:1031D00080E20E946B0807CDDF93CF930F92CDB7AB
:1031E000DEB789838981882319F08981813041F490
:1031F000898160E00E94F80B86EB90E00E94240C2D
:103200000F90CF91DF910895DF93CF9300D00F926D
:10321000CDB7DEB79B838A8319820CC08981282FA2
:1032200030E08A819B81FC01E20FF31F10828981CB
:103230008F5F89838981873088F30F900F900F907B
:10324000CF91DF910895DF93CF9300D000D0CDB719
:10325000DEB79C838B831A82198219C08981282F3B
:1032600030E08B819C81FC01E20FF31F208189817A
:10327000882F90E0FC01E950FE4F8081281711F063
:103280001A820EC081E08A8389818F5F8983898158
:10329000882F90E0FC01E950FE4F80818823F1F6F1
:1032A0008A810F900F900F900F90CF91DF9108952A
:1032B000DF93CF9300D000D0CDB7DEB79C838B8354
:1032C0001A82198219C08981282F30E08B819C8154
:1032D000FC01E20FF31F20818981882F90E0FC011F
:1032E000E350FE4F8081281711F01A820EC081E052
:1032F0008A8389818F5F89838981882F90E0FC018F
:10330000E350FE4F80818823F1F68A810F900F9061
:103310000F900F90CF91DF910895629FD001739F1E
:10332000F001829FE00DF11D649FE00DF11D929F61
:10333000F00D839FF00D749FF00D659FF00D9927A0
:10334000729FB00DE11DF91F639FB00DE11DF91FC4
:10335000BD01CF0111240895AA1BBB1B51E107C079
:10336000AA1FBB1FA617B70710F0A61BB70B881F15
:10337000991F5A95A9F780959095BC01CD010895A4
:1033800097FB092E07260AD077FD04D0E5DF06D08B
:1033900000201AF4709561957F4F0895F6F7909587
:1033A00081959F4F0895A1E21A2EAA1BBB1BFD0118
:1033B0000DC0AA1FBB1FEE1FFF1FA217B307E40714
:1033C000F50720F0A21BB30BE40BF50B661F771F6C
:1033D000881F991F1A9469F760957095809590954C
:1033E0009B01AC01BD01CF01089597FB092E052675
:1033F0000ED057FD04D0D7DF0AD0001C38F450950A
:103400004095309521953F4F4F4F5F4F0895F6F708
:1034100090958095709561957F4F8F4F9F4F089540
:103420002F923F924F925F926F927F928F929F92D4
:10343000AF92BF92CF92DF92EF92FF920F931F93C2
:10344000CF93DF93CDB7DEB7CA1BDB0B0FB6F89473
:10345000DEBF0FBECDBF09942A88398848885F84B3
:103460006E847D848C849B84AA84B984C884DF8024
:10347000EE80FD800C811B81AA81B981CE0FD11D08
:103480000FB6F894DEBF0FBECDBFED010895F894DE
:02349000FFCF6C
:10349200456E74657220557365726E616D65203A72
:1034A20000456E7465722050617373776F726400A9
:1034B2004C696768742020302C2B2C2D0046616EDD
:1034C20020202020506F740057726F6E6720506169
:1034D2007373776F72640057726F6E6720757365CE
:1034E200726E616D65002020202020202020202087
:1034F20020202020202020202020202020202020CA
:1035020020202020202000000000000000000000F9
:103512000102020303030304040404040404040573
:103522000505050505050505050505050505050648
:103532000606060606060606060606060606060629
:103542000606060606060606060606060606060718
:1035520007070707070707070707070707070707F9
:1035620007070707070707070707070707070707E9
:1035720007070707070707070707070707070707D9
:1035820007070707070707070707070707070708C8
:1035920008080808080808080808080808080808A9
:1035A2000808080808080808080808080808080899
:1035B2000808080808080808080808080808080889
:1035C2000808080808080808080808080808080879
:1035D2000808080808080808080808080808080869
:1035E2000808080808080808080808080808080859
:1035F2000808080808080808080808080808080849
:10360200080808080808080808080808080808043C
:103612000506070C0D0E0F3738392D3435362B3190
:1036220032332A4530432F31353031380031332B94
:043632003839000320
:00000001FF
